:100000000C942A000C94F3010C9420020C944D02E1
:100010000C943C000C943C000C943C000C943C0070
:100020000C943C000C943C000C943C000C943C0060
:100030000C943C000C943C000C943C000C943C0050
:100040000C943C000C943C000C943C000C943C0040
:100050000C943C0011241FBECFE5D8E0DEBFCDBF1D
:1000600010E0A0E6B0E001C01D92A636B107E1F7AE
:100070000E9480050C94BD050C940000DF93CF9383
:10008000CDB7DEB7AFE5B0E0EFE5F0E080818068A6
:100090008C93CF91DF910895DF93CF93CDB7DEB7E7
:1000A000AFE5B0E0EFE5F0E080818F778C93CF9102
:1000B000DF910895DF93CF9300D00F92CDB7DEB7D5
:1000C00089838981282F30E03B832A838A819B8121
:1000D0008130910561F12A813B81223031052CF478
:1000E0008A819B81009769F063C02A813B8122301D
:1000F000310599F18A819B818330910509F443C0D0
:1001000057C0A5E5B0E0E5E5F0E080818D7F8C93F8
:10011000A5E5B0E0E5E5F0E080818E7F8C93ABE56E
:10012000B0E0EBE5F0E0808180648C9341C0A5E510
:10013000B0E0E5E5F0E080818D7F8C93A5E5B0E04F
:10014000E5E5F0E0808181608C93ABE5B0E0EBE524
:10015000F0E0808180648C932BC0A5E5B0E0E5E5FC
:10016000F0E0808182608C93A5E5B0E0E5E5F0E009
:1001700080818E7F8C93ABE5B0E0EBE5F0E0808191
:1001800080648C9315C0A5E5B0E0E5E5F0E08081E2
:1001900082608C93A5E5B0E0E5E5F0E080818160C8
:1001A0008C93ABE5B0E0EBE5F0E0808180648C936C
:1001B0000F900F900F90CF91DF910895DF93CF9321
:1001C00000D00F92CDB7DEB789838981282F30E028
:1001D0003B832A838A819B818130910561F12A8149
:1001E0003B81223031052CF48A819B81009769F094
:1001F00063C02A813B812230310599F18A819B813C
:100200008330910509F443C057C0A5E5B0E0E5E5AA
:10021000F0E080818B7F8C93A5E5B0E0E5E5F0E030
:100220008081877F8C93ABE5B0E0EBE5F0E08081E7
:1002300080688C9341C0A5E5B0E0E5E5F0E0808101
:10024000877F8C93A5E5B0E0E5E5F0E080818460F0
:100250008C93ABE5B0E0EBE5F0E0808180688C93B7
:100260002BC0A5E5B0E0E5E5F0E0808188608C93E7
:10027000A5E5B0E0E5E5F0E080818B7F8C93ABE510
:10028000B0E0EBE5F0E0808180688C9315C0A5E5D7
:10029000B0E0E5E5F0E0808188608C93A5E5B0E012
:1002A000E5E5F0E0808184608C93ABE5B0E0EBE5C0
:1002B000F0E0808180688C930F900F900F90CF9129
:1002C000DF910895DF93CF9300D00F92CDB7DEB7C3
:1002D00089838981282F30E03B832A838A819B810F
:1002E0008230910531F02A813B812330310581F044
:1002F0001DC0A4E5B0E0E4E5F0E080818F7B8C9345
:10030000ABE5B0E0EBE5F0E0808180628C930EC05D
:10031000A4E5B0E0E4E5F0E0808180648C93ABE597
:10032000B0E0EBE5F0E0808180628C930F900F905D
:100330000F90CF91DF910895DF93CF9300D00F926C
:10034000CDB7DEB79B838A8319828A819B81009710
:1003500039F08A819B81909361008093600002C094
:1003600081E0898389810F900F900F90CF91DF9169
:100370000895DF93CF9300D00F92CDB7DEB79B8364
:100380008A8319828A819B81009739F08A819B81B7
:10039000909363008093620002C081E08983898129
:1003A0000F900F900F90CF91DF910895DF93CF932F
:1003B00000D00F92CDB7DEB79B838A8319828A81E2
:1003C0009B81009739F08A819B819093650080938F
:1003D000640002C081E0898389810F900F900F90A3
:1003E000CF91DF9108951F920F920FB60F921124B3
:1003F0002F933F934F935F936F937F938F939F932D
:10040000AF93BF93EF93FF93DF93CF93CDB7DEB757
:10041000E0916000F09161000995CF91DF91FF912B
:10042000EF91BF91AF919F918F917F916F915F916C
:100430004F913F912F910F900FBE0F901F901895E5
:100440001F920F920FB60F9211242F933F934F9349
:100450005F936F937F938F939F93AF93BF93EF932C
:10046000FF93DF93CF93CDB7DEB7E0916200F091B9
:1004700063000995CF91DF91FF91EF91BF91AF910B
:100480009F918F917F916F915F914F913F912F91AC
:100490000F900FBE0F901F9018951F920F920FB6DE
:1004A0000F9211242F933F934F935F936F937F93FA
:1004B0008F939F93AF93BF93EF93FF93DF93CF936C
:1004C000CDB7DEB7E0916400F09165000995CF915A
:1004D000DF91FF91EF91BF91AF919F918F917F91AC
:1004E0006F915F914F913F912F910F900FBE0F90A1
:1004F0001F901895DF93CF93CDB7DEB728970FB62F
:10050000F894DEBF0FBECDBF8A836B834C83198204
:100510008B81883008F0F4C08C81882309F077C083
:100520008A81282F30E038872F838F81988581300A
:10053000910559F12F813885223031052CF48F81B6
:100540009885009769F060C02F8138852230310589
:1005500089F18F8198858330910509F440C054C09A
:10056000AAE3B0E0EAE3F0E08081482F8B81282FF6
:1005700030E081E090E0022E02C0880F991F0A94BB
:10058000E2F7809584238C93BDC0A7E3B0E0E7E356
:10059000F0E08081482F8B81282F30E081E090E0CF
:1005A000022E02C0880F991F0A94E2F780958423D7
:1005B0008C93A8C0A4E3B0E0E4E3F0E08081482F8E
:1005C0008B81282F30E081E090E0022E02C0880F5E
:1005D000991F0A94E2F7809584238C9393C0A1E33A
:1005E000B0E0E1E3F0E08081482F8B81282F30E0FC
:1005F00081E090E0022E02C0880F991F0A94E2F772
:10060000809584238C937EC081E089837BC08C811C
:10061000813009F072C08A81282F30E03E832D831B
:100620008D819E818130910549F12D813E8122305D
:1006300031052CF48D819E81009761F05BC02D8186
:100640003E812230310571F18D819E81833091058B
:10065000E9F150C0AAE3B0E0EAE3F0E08081482F7E
:100660008B81282F30E081E090E0022E02C0880FBD
:10067000991F0A94E2F7842B8C9344C0A7E3B0E05F
:10068000E7E3F0E08081482F8B81282F30E081E084
:1006900090E0022E02C0880F991F0A94E2F7842B83
:1006A0008C9330C0A4E3B0E0E4E3F0E08081482F15
:1006B0008B81282F30E081E090E0022E02C0880F6D
:1006C000991F0A94E2F7842B8C931CC0A1E3B0E03D
:1006D000E1E3F0E08081482F8B81282F30E081E03A
:1006E00090E0022E02C0880F991F0A94E2F7842B33
:1006F0008C9308C081E0898305C081E0898302C0B2
:1007000081E08983898128960FB6F894DEBF0FBEF9
:10071000CDBFCF91DF910895DF93CF9300D000D06C
:100720000F92CDB7DEB78A836B8319828A81282F17
:1007300030E03D832C838C819D8181309105D1F007
:100740002C813D81223031052CF48C819D810097D4
:1007500061F01EC02C813D812230310581F08C81F9
:100760009D818330910581F013C0EAE3F0E08B8135
:1007700080830EC0E7E3F0E08B81808309C0E4E36F
:10078000F0E08B81808304C0E1E3F0E08B81808323
:1007900089810F900F900F900F900F90CF91DF9164
:1007A0000895DF93CF93CDB7DEB728970FB6F894AF
:1007B000DEBF0FBECDBF8A836B834C8319828B81D2
:1007C000883008F0F4C08C81882309F077C08A81D2
:1007D000282F30E038872F838F81988581309105CD
:1007E00059F12F813885223031052CF48F8198857D
:1007F000009769F060C02F8138852230310589F17A
:100800008F8198858330910509F440C054C0ABE3D3
:10081000B0E0EBE3F0E08081482F8B81282F30E0BF
:1008200081E090E0022E02C0880F991F0A94E2F73F
:10083000809584238C93BDC0A8E3B0E0E8E3F0E0AA
:100840008081482F8B81282F30E081E090E0022EBC
:1008500002C0880F991F0A94E2F7809584238C9335
:10086000A8C0A5E3B0E0E5E3F0E08081482F8B81EC
:10087000282F30E081E090E0022E02C0880F991FFF
:100880000A94E2F7809584238C9393C0A2E3B0E0AE
:10089000E2E3F0E08081482F8B81282F30E081E077
:1008A00090E0022E02C0880F991F0A94E2F780950B
:1008B00084238C937EC081E089837BC08C818130CE
:1008C00009F072C08A81282F30E03E832D838D810C
:1008D0009E818130910549F12D813E812230310583
:1008E0002CF48D819E81009761F05BC02D813E814B
:1008F0002230310571F18D819E8183309105E9F1BE
:1009000050C0ABE3B0E0EBE3F0E08081482F8B8197
:10091000282F30E081E090E0022E02C0880F991F5E
:100920000A94E2F7842B8C9344C0A8E3B0E0E8E398
:10093000F0E08081482F8B81282F30E081E090E02B
:10094000022E02C0880F991F0A94E2F7842B8C9321
:1009500030C0A5E3B0E0E5E3F0E08081482F8B8173
:10096000282F30E081E090E0022E02C0880F991F0E
:100970000A94E2F7842B8C931CC0A2E3B0E0E2E37C
:10098000F0E08081482F8B81282F30E081E090E0DB
:10099000022E02C0880F991F0A94E2F7842B8C93D1
:1009A00008C081E0898305C081E0898302C081E0BD
:1009B0008983898128960FB6F894DEBF0FBECDBF1C
:1009C000CF91DF910895DF93CF9300D000D00F92A5
:1009D000CDB7DEB78A836B8319828A81282F30E0F6
:1009E0003D832C838C819D8181309105D1F02C81B8
:1009F0003D81223031052CF48C819D81009761F07E
:100A00001EC02C813D812230310581F08C819D8179
:100A10008330910581F013C0EBE3F0E08B8180839C
:100A20000EC0E8E3F0E08B81808309C0E5E3F0E0ED
:100A30008B81808304C0E2E3F0E08B818083898135
:100A40000F900F900F900F900F90CF91DF9108951E
:100A5000DF93CF93CDB7DEB727970FB6F894DEBFFD
:100A60000FBECDBF8A836B835D834C8319828C81DB
:100A70009D810097C9F18B818830B0F58A81282F3C
:100A800030E03F832E838E819F8181309105D1F0AC
:100A90002E813F81223031052CF48E819F81009779
:100AA00061F01FC02E813F812230310581F08E819F
:100AB0009F818330910581F014C0EC81FD818B8191
:100AC000808314C0EC81FD818B8180830FC0EC8119
:100AD000FD818B8180830AC0EC81FD818B818083C5
:100AE00005C081E0898302C081E0898389812796DE
:100AF0000FB6F894DEBF0FBECDBFCF91DF91089542
:100B0000DF93CF9300D0CDB7DEB781E090E09A833A
:100B1000898381E062E040E00E947A0281E062E045
:100B200041E00E94D10382E090E00E9462010E94B5
:100B30003E008CEA95E00E94D601FFCFDF93CF9371
:100B4000CDB7DEB7CF91DF910895DF93CF93CDB7C7
:100B5000DEB7CF91DF910895DF93CF93CDB7DEB7A6
:100B600083E060E041E00E947A0283E060E041E0DF
:0E0B70000E94D103CF91DF910895F894FFCF3A
:00000001FF
