:100000000C942A000C9434000C9434000C943400AA
:100010000C9434000C9434000C9434000C94340090
:100020000C9434000C9434000C9434000C94340080
:100030000C9434000C9434000C9434000C94340070
:100040000C9434000C9434000C9434000C94340060
:100050000C94340011241FBECFE5D8E0DEBFCDBF25
:100060000E943C030C941E050C940000DF93CF9378
:10007000CDB7DEB728970FB6F894DEBF0FBECDBF61
:100080008A836B834C8319828B81883008F0F4C09B
:100090008C81882309F077C08A81282F30E0388747
:1000A0002F838F8198858130910559F12F81388573
:1000B000223031052CF48F819885009769F060C05B
:1000C0002F8138852230310589F18F8198858330E1
:1000D000910509F440C054C0AAE3B0E0EAE3F0E0BF
:1000E0008081482F8B81282F30E081E090E0022E24
:1000F00002C0880F991F0A94E2F7809584238C939D
:10010000BDC0A7E3B0E0E7E3F0E08081482F8B813A
:10011000282F30E081E090E0022E02C0880F991F66
:100120000A94E2F7809584238C93A8C0A4E3B0E0FE
:10013000E4E3F0E08081482F8B81282F30E081E0DC
:1001400090E0022E02C0880F991F0A94E2F7809572
:1001500084238C9393C0A1E3B0E0E1E3F0E08081DD
:10016000482F8B81282F30E081E090E0022E02C0E2
:10017000880F991F0A94E2F7809584238C937EC0A0
:1001800081E089837BC08C81813009F072C08A81D3
:10019000282F30E03E832D838D819E818130910513
:1001A00049F12D813E81223031052CF48D819E81D3
:1001B000009761F05BC02D813E812230310571F1E5
:1001C0008D819E8183309105E9F150C0AAE3B0E0B2
:1001D000EAE3F0E08081482F8B81282F30E081E036
:1001E00090E0022E02C0880F991F0A94E2F7842B38
:1001F0008C9344C0A7E3B0E0E7E3F0E08081482FB0
:100200008B81282F30E081E090E0022E02C0880F21
:10021000991F0A94E2F7842B8C9330C0A4E3B0E0DA
:10022000E4E3F0E08081482F8B81282F30E081E0EB
:1002300090E0022E02C0880F991F0A94E2F7842BE7
:100240008C931CC0A1E3B0E0E1E3F0E08081482F93
:100250008B81282F30E081E090E0022E02C0880FD1
:10026000991F0A94E2F7842B8C9308C081E089835C
:1002700005C081E0898302C081E089838981289655
:100280000FB6F894DEBF0FBECDBFCF91DF910895BA
:10029000DF93CF9300D000D00F92CDB7DEB78A8323
:1002A0006B8319828A81282F30E03D832C838C81D7
:1002B0009D8181309105D1F02C813D812230310525
:1002C0002CF48C819D81009761F01EC02C813D81B2
:1002D0002230310581F08C819D818330910581F040
:1002E00013C0EAE3F0E08B8180830EC0E7E3F0E027
:1002F0008B81808309C0E4E3F0E08B81808304C0BC
:10030000E1E3F0E08B81808389810F900F900F9063
:100310000F900F90CF91DF910895DF93CF93CDB7DA
:10032000DEB728970FB6F894DEBF0FBECDBF8A8325
:100330006B834C8319828B81883008F0F4C08C81E8
:10034000882309F077C08A81282F30E038872F83EF
:100350008F8198858130910559F12F813885223020
:1003600031052CF48F819885009769F060C02F814A
:1003700038852230310589F18F8198858330910548
:1003800009F440C054C0ABE3B0E0EBE3F0E080819F
:10039000482F8B81282F30E081E090E0022E02C0B0
:1003A000880F991F0A94E2F7809584238C93BDC02F
:1003B000A8E3B0E0E8E3F0E08081482F8B81282FAC
:1003C00030E081E090E0022E02C0880F991F0A946D
:1003D000E2F7809584238C93A8C0A5E3B0E0E5E321
:1003E000F0E08081482F8B81282F30E081E090E081
:1003F000022E02C0880F991F0A94E2F78095842389
:100400008C9393C0A2E3B0E0E2E3F0E08081482F58
:100410008B81282F30E081E090E0022E02C0880F0F
:10042000991F0A94E2F7809584238C937EC081E023
:1004300089837BC08C81813009F072C08A81282F2A
:1004400030E03E832D838D819E818130910549F17D
:100450002D813E81223031052CF48D819E810097C3
:1004600061F05BC02D813E812230310571F18D81BB
:100470009E8183309105E9F150C0ABE3B0E0EBE33E
:10048000F0E08081482F8B81282F30E081E090E0E0
:10049000022E02C0880F991F0A94E2F7842B8C93D6
:1004A00044C0A8E3B0E0E8E3F0E08081482F8B810E
:1004B000282F30E081E090E0022E02C0880F991FC3
:1004C0000A94E2F7842B8C9330C0A5E3B0E0E5E317
:1004D000F0E08081482F8B81282F30E081E090E090
:1004E000022E02C0880F991F0A94E2F7842B8C9386
:1004F0001CC0A2E3B0E0E2E3F0E08081482F8B81F2
:10050000282F30E081E090E0022E02C0880F991F72
:100510000A94E2F7842B8C9308C081E0898305C09C
:1005200081E0898302C081E08983898128960FB6A2
:10053000F894DEBF0FBECDBFCF91DF910895DF935A
:10054000CF9300D000D00F92CDB7DEB78A836B83F4
:1005500019828A81282F30E03D832C838C819D81F4
:1005600081309105D1F02C813D81223031052CF470
:100570008C819D81009761F01EC02C813D812230CD
:10058000310581F08C819D818330910581F013C00C
:10059000EBE3F0E08B8180830EC0E8E3F0E08B8139
:1005A000808309C0E5E3F0E08B81808304C0E2E34F
:1005B000F0E08B81808389810F900F900F900F90D6
:1005C0000F90CF91DF910895DF93CF93CDB7DEB732
:1005D00027970FB6F894DEBF0FBECDBF8A836B831B
:1005E0005D834C8319828C819D810097C9F18B8139
:1005F0008830B0F58A81282F30E03F832E838E81AA
:100600009F8181309105D1F02E813F8122303105CB
:100610002CF48E819F81009761F01FC02E813F8155
:100620002230310581F08E819F818330910581F0E8
:1006300014C0EC81FD818B81808314C0EC81FD812D
:100640008B8180830FC0EC81FD818B8180830AC008
:10065000EC81FD818B81808305C081E0898302C0AC
:1006600081E08983898127960FB6F894DEBF0FBE9B
:10067000CDBFCF91DF910895DF93CF93CDB7DEB794
:1006800080E00E944C030E94900388E20E94FE03D7
:1006900080E00E948404FFCFDF93CF930F92CDB709
:1006A000DEB78983A6E5B0E0E6E5F0E0808184600E
:1006B0008C93E0E2F0E082E08083A1E2B0E0E1E24E
:1006C000F0E080818D7F8C93A1E2B0E0E1E2F0E088
:1006D00080818E7F8C938981882329F0E2E2F0E08B
:1006E0008981880F80830F90CF91DF910895DF93E8
:1006F000CF930F92CDB7DEB789838981882329F004
:10070000E2E2F0E08981880F8083A6E5B0E0E6E5CB
:10071000F0E0808184608C930F90CF91DF910895F9
:10072000DF93CF9300D0CDB7DEB71982A6E5B0E056
:10073000E6E5F0E0808180628C93A6E5B0E0E6E536
:10074000F0E0808184608C93A6E5B0E0E6E5F0E01F
:10075000808180688C93E6E5F0E08081881F88279F
:10076000881F8130C1F7E1E2F0E08081882F90E0BE
:10077000887F90708830910519F084E08A8301C0E9
:100780001A828A810F900F90CF91DF910895DF93A5
:10079000CF9300D0CDB7DEB71982A6E5B0E0E6E58D
:1007A000F0E0808180628C93A6E5B0E0E6E5F0E0C1
:1007B000808184608C93A6E5B0E0E6E5F0E080817E
:1007C00080688C93E6E5F0E08081881F8827881F89
:1007D0008130C1F7E1E2F0E08081882F90E0887FEE
:1007E00090708031910519F084E08A8301C01A82EB
:1007F0008A810F900F90CF91DF910895DF93CF936F
:1008000000D0CDB7DEB78983A6E5B0E0E6E5F0E03D
:1008100080818F7D8C93E3E2F0E08981880F808373
:10082000A3E2B0E0E3E2F0E080818E7F8C93A6E566
:10083000B0E0E6E5F0E0808180688C93A6E5B0E06A
:10084000E6E5F0E0808184608C93E6E5F0E080816D
:10085000881F8827881F8130C1F7E1E2F0E080819E
:10086000882F90E0887F90708831910519F085E09D
:100870008A8301C01A828A810F900F90CF91DF91F5
:100880000895DF93CF9300D0CDB7DEB78983A6E577
:10089000B0E0E6E5F0E080818F7D8C93E3E2F0E06C
:1008A0008981880F8083A3E2B0E0E3E2F0E08081F9
:1008B00081608C93A6E5B0E0E6E5F0E08081806899
:1008C0008C93A6E5B0E0E6E5F0E0808184608C934F
:1008D000E6E5F0E08081881F8827881F8130C1F716
:1008E000E1E2F0E08081882F90E0887F9070803492
:1008F000910519F086E08A8301C01A828A810F90DF
:100900000F90CF91DF910895DF93CF9300D0CDB7B3
:10091000DEB78983E3E2F0E089818083A6E5B0E079
:10092000E6E5F0E0808180688C93A6E5B0E0E6E53E
:10093000F0E0808184608C93E6E5F0E08081881FA0
:100940008827881F8130C1F7E1E2F0E08081882F9D
:1009500090E0887F90708832910519F087E08A8353
:1009600001C01A828A810F900F90CF91DF91089574
:10097000DF93CF9300D000D0CDB7DEB79B838A83BF
:100980001982E3E2F0E08081EA81FB818083A6E5C1
:10099000B0E0E6E5F0E0808180688C93A6E5B0E009
:1009A000E6E5F0E0808184608C93E6E5F0E080810C
:1009B000881F8827881F8130C1F7E1E2F0E080813D
:1009C000882F90E0887F90708035910519F088E03D
:1009D0008C8301C01C828C810F900F900F900F9020
:1009E000CF91DF910895DF93CF93CDB7DEB7A6E522
:1009F000B0E0E6E5F0E0808180618C93A6E5B0E0B0
:100A0000E6E5F0E0808180688C93CF91DF910895D6
:100A1000DF93CF93CDB7DEB7E6E5F0E084E88083DF
:100A2000E6E5F0E08081881F8827881F8130C1F7C4
:100A3000E3E2F0E08081CF91DF910895F894FFCF59
:00000001FF
